:020000040800F2
:10000000B0040020051B0008D91A0008DB1A0008FC
:10001000DD1A0008DF1A0008E11A000800000000DD
:10002000000000000000000000000000E31A0008CB
:10003000E51A000800000000E71A0008E91A0008A5
:10004000311B0008351B0008391B00083D1B000848
:10005000411B0008451B0008491B00084D1B0008F8
:10006000511B0008551B0008591B00085D1B0008A8
:10007000611B0008651B0008691B00086D1B000858
:10008000711B0008751B0008791B00087D1B000808
:10009000811B0008851B0008891B00088D1B0008B8
:1000A000911B0008951B0008991B00089D1B000868
:1000B000A11B0008A51B0008A91B0008AD1B000818
:1000C000B11B0008B51B0008B91B0008BD1B0008C8
:1000D000C11B0008C51B0008C91B0008CD1B000878
:1000E000ED1A0008D11B0008D51B0008D91B000819
:1000F000DD1B0008E11B0008E51B0008E91B0008E8
:10010000ED1B0008F11B0008F51B0008F91B000897
:10011000FD1B0008011C0008051C0008091C000844
:100120000D1C0008111C0008151C0008191C0008F3
:100130001D1C0008211C0008251C0008291C0008A3
:100140002D1C0008311C0008351C0008391C000853
:100150003D1C0008411C0008451C0008491C000803
:100160004D1C0008511C0008551C0008591C0008B3
:100170005D1C0008611C0008000000000000000079
:10018000651C0008691C000838B5040001D1012075
:1001900032BD00F0CBF818B900F0C4F800F0C4FB91
:1001A000FFE702206870211D206800F0A7F90120F8
:1001B0002873A870E87028716871A871E8712872B6
:1001C0006872A872E8726870002032BD38B5040009
:1001D00001D1012032BD00F0A9F818B900F0A2F851
:1001E00000F004FCDDE770B500F092F809B9027880
:1001F0000FE0042908BF42780BD0082908BF827895
:1002000007D00C2908BFC27803D010290CBF02798F
:100210004279012A01D0012070BD11B90222027079
:1002200014E0042902D1022242700FE0082902D111
:10023000022282700AE00C2902D10222C27005E07B
:10024000102907BF022202710223437100F044F813
:1002500000F04BF818BF904208D088421FBFDFF86B
:10026000BC50A842DFF8B860B04201D100F01FF8DE
:1002700024689C4218BFB4F1804F0BD000F024F8E2
:100280001CBF1F4B9C4205D000F01BF81CBF9442C2
:100290008C4208D100F010F818BFB1F5803F04D0AF
:1002A00000F01EF801E000F012F8002070BD456C6F
:1002B00045F4004545647047A16817480140062988
:1002C00070471048844270470C4884427047216848
:1002D00041F00101216070472068012200F0E3BA7B
:1002E000206840F00100206070472068024B064AF9
:1002F0000649984270470000002C0140000400406D
:1003000000080040000C0040003401400040014063
:10031000044604F13E00704707000100004401401C
:1003200000480140002129702046704704F13C0537
:100330006878704738B500F07EF801D1022032BDF0
:10034000012084F83C0052B1042A19D0082A29D08F
:100350000C2A38D0102A48D0142A57D067E02068D9
:1003600000F022F92168886940F0080088618869F6
:1003700020F0040088618A69286902438A6156E096
:10038000206800F052F92068816941F400618161C0
:10039000816921F48061816181692A6941EA0221D0
:1003A000816144E0206800F079F92168C86940F073
:1003B0000800C861C86920F00400C861CA692869DA
:1003C0000243CA6133E0206800F0A0F92068C169E7
:1003D00041F40061C161C16921F48061C161C169F9
:1003E0002A6941EA0221C16121E0206800F0B5F9E3
:1003F0002168486D40F008004865486D20F0040011
:1004000048654A6D286902434A6510E0206800F09B
:10041000CEF92068416D41F400614165416D21F4E0
:1004200080614165416D2A6941EA022141650020F0
:1004300084F83C0032BD04460D4694F83C00012887
:10044000704738B500F04EF801D1022032BD0120CE
:10045000207002226270DFF8B4032A6893680340B8
:1004600093600868020018BF10282DD0202818BFFC
:10047000302829D0402823D0502816D0602818D002
:10048000702803D0B0F5005F07D021E000F025F818
:100490002868816841F0770105E000F01EF82868BF
:1004A000816841F48041816012E000F012F850212F
:1004B0000BE0CA684968286800F0D1F9602104E0BF
:1004C00000F007F8402100E00146286800F0D9F963
:1004D0000EE0CA6849682868B2E1CB684A68896852
:1004E0002868D6E1054605F13C04207801287047CC
:1004F0000120607000212170002032BD2DE9F04301
:10050000DFF80C73D0F800C0DFF80833DFF80843D9
:10051000DFF80853DFF80863DFF808E3DFF8088343
:10052000DFF80893B84218BFB0F1804F07D04845B4
:1005300018BF404503D0704518BFB0420ED14A687D
:10054000B8422CF0700C18BFB0F1804F42EA0C0C8E
:100550000CD048451CBF4045704507D0B04218BF7D
:10056000A84203D0A04218BF984204D1CA682CF414
:10057000407C42EA0C0C4A692CF0800C42EA0C02E6
:100580000260B8428A68C26218BFB0420A688262DA
:1005900004D0A8421CBFA042984201D1096901635E
:1005A00001224261BDE8F0832DE9F041026ADFF8E3
:1005B0006082DFF86CE2DFF86072DFF860C2520838
:1005C00052000262066A44688569DFF864220B689B
:1005D00026F0020615408A6816431D43404518BFA1
:1005E00070458C4B04D060451CBFB84298420DD179
:1005F000CA6826F008061643404518BF704526F025
:10060000040605D0604518BFB84201D0984205D114
:100610004B698A6924F440741C4314434460856127
:10062000496841630662BDE8F081F0B5026A22F0D4
:1006300010020262056A436884697E4A0E681440AB
:100640008A6844EA062425F0200545EA0215704E22
:10065000734AB04218BF904208D1CF6825F0800598
:1006600045EA0715B04225F040050AD090421CBF6C
:100670006A4A904205D0684EB0421CBF654A90421B
:1006800006D14E698A6923F44063164343EA860320
:1006900043608461496881630562F0BDF0B5026A18
:1006A000634B22F480720262066A4468C5690A6874
:1006B00026F400761D408B6846EA03261543544B0A
:1006C000574A984218BF904208D1CF6826F4006676
:1006D00046EA0726984226F480660AD090421CBF5C
:1006E0004E4A904205D04C4B98421CBF494A90421A
:1006F00006D14B698A6924F44054134344EA031435
:100700004460C5614968C1630662F0BD70B5026AA4
:1007100022F480520262036A4468C569454A00F0C7
:100720006DF823F4005343EA0233B0421CBF3C4A45
:10073000904207D0394EB0421FBF374A9042354EE3
:10074000B04204D14A6924F4804444EA82144460EB
:10075000C56149680164036270BD70B5026A364BB9
:1007600022F480320262046A4568466D0A681E40BF
:1007700016438B68264A24F4003444EA034490422A
:100780001CBF274B984207D0244A90421FBF224BE0
:100790009842204A904204D14A6925F4803545EABE
:1007A00002254560466549688165046270BD70B583
:1007B000026A22F480120262036A4468456D1F4A8D
:1007C00000F01CF823F4001343EA0253B0421CBFAC
:1007D000134A904207D0114EB0421FBF0E4A9042BA
:1007E0000C4EB04204D14A6924F4802444EA8224A5
:1007F000446045654968C165036270BD0E68154077
:1008000045EA06258A68024E704700008800FEFF10
:10081000002C0140004801400044014000400140DC
:1008200000340140000C004000080040000400407B
:100830008CFFFEFFFF8CFFFE8FFFFEFFFF8FFFFE92
:1008400010B5036A046A64086400046223F00A03B2
:10085000846924F0F00444EA021484612EE010B5A7
:10086000036A23F0100303628369046A23F470436C
:1008700043EA023324F0A004836144EA01140462D1
:1008800010BD826822F07002114341F007018160BF
:10089000704710B5846824F47F442143114341EA32
:1008A0000321816010BD10B501F01F01036A01240E
:1008B0008C40A343036202FA01F1036A1943016207
:1008C00010BD30B4002513E050F8042BD30744BF0B
:1008D000A9F101039A18091F042942F8045BFAD20E
:1008E00013468C0744BF15809B1CC90748BF1D7069
:1008F00050F8041B0029E7D130BC7047374881B05D
:10090000816841F001018160816801F0010100917D
:100910000099026842F080520260006800F0805046
:100920000090009801B0704781B000682B49B0F189
:10093000804F08D1086840F001000860096801F0A4
:10094000010100910AE0264A904208D1886840F4EB
:1009500080308860886800F480300090009801B092
:10096000704710B586B0044614220021684600F096
:100970003EF820681B49B0F1804F10D1086840F064
:10098000010008600222096801F00101059120219F
:10099000059800F01DF84FF09040012112E0104A38
:1009A000904213D1086840F00200086002220968F2
:1009B00001F0020105914FF4804105980A4800F0CA
:1009C00007F80E210491694600F032F806B010BD18
:1009D000009101920021029103917047581002404A
:1009E000004001404C10024000040048704710B520
:1009F000044610460A460146204600F021F92046EA
:100A000010BD30B40EE00268436802440830DC07D1
:100A100044BFA9F10104E31852F8045B43F8045BF6
:100A2000091FF9D150F8041B0029ECD130BC7047E4
:100A30002DE9F84F4FF00009774A784B4FF00F0837
:100A400005460E4634E0764CA54214BF0724062422
:100A50008C4074493C4341F82C40C143146801EA7E
:100A6000040C7468E40348BF40EA0C0CC2F800C0F0
:100A7000546801EA040C7468A40348BF40EA0C0CF3
:100A8000C2F804C0946801EA040C7468E40248BF28
:100A900040EA0C0CC2F808C0D46801EA040C716882
:100AA000890248BF40EA0C0CC2F80CC009F10109E8
:100AB000316831FA09F000F09780012404FA09F452
:100AC00014EA0100F2D04FEA490C032101FA0CF1BB
:100AD0006FEA010E7168E443012918BF022903D0AF
:100AE000112918BF122910D1A968F7680EEA01016F
:100AF00007FA0CF73943A96069687768C7F30017EC
:100B0000214007FA09F739436960716801F003076A
:100B1000032F07D1EF6AC1F3C0013C4001FA09F18C
:100B20000C43EC62E968B4680EEA010104FA0CF4C3
:100B30002143E9604FEA89017468022C18BF122C26
:100B400012D14FEAD90405EB840401F01C07D4F854
:100B500020A008FA07FB2AEA0B0AD6F810B00BFA15
:100B600007F747EA0A0727622C680EEA0407347978
:100B700004F0030404FA0CF43C432C607468E400B1
:100B800094D51C6844F001041C604FEA990C1C6861
:100B900004F00104009401F00C01009C214C54F875
:100BA0002C4008FA01F724EA0707B5F1904F08BF77
:100BB000002418D01C4CA54208BF012413D01B4CA4
:100BC000A54208BF02240ED0194CA54208BF032439
:100BD00009D0184CA54208BF042404D0164CA542E5
:100BE0007FF431AF052433E7BDE8F18F0AB18161AD
:100BF000704781627047426901EA0203914341EA0A
:100C00000341816170470D4A136803421CBF1060A5
:100C100000F09EB9704700000004014060100240DF
:100C2000001800480800014000040048000800487F
:100C3000000C004800100048001400481404014053
:100C400062F30F2262F31F42401810F0030308D032
:100C5000C91A1FD3DB0748BF00F8012D28BF20F8B1
:100C6000022D130030B414461546103928BF20E970
:100C70003C00FAD8490728BF20E90C0048BF40F8DB
:100C8000042D890028BF20F8022D48BF00F8012D4F
:100C900030BC7047C91818BF00F8012DCB0728BF1A
:100CA00000F8012D704700002DE9F04399B000F0E5
:100CB00095F900F025F91422002101A8FFF797FE0D
:100CC000C048C14E016841F0040101604FF4005773
:100CD000026802F00402009240F2CF7500990268A7
:100CE00042F0010202604FF48059036803F00103EF
:100CF0000093002400990268B44942F002020260A5
:100D0000A046006800F0020000900098B0480291F0
:100D10000197039401A9FFF78BFE002200212820F0
:100D200000F086F9282000F0A1F900F0DFF800F0CB
:100D3000E2F800F0D6F84FF080409F217060B1607B
:100D4000F46080213561F1617461301DFFF71CFA98
:100D5000CDF828900AA9301DFFF773FB301DFFF76F
:100D600035FA009402946946301D00F0ABF9602119
:100D70000391002204920592079203A9301DFFF708
:100D8000D9FA301DFFF7EDFD00F0B0F800F0B3F830
:100D900000F0A7F82C2200210EA8FFF728FE8D48AE
:100DA00030659F217165B4658021F565B166346653
:100DB000746606F15000FFF7E7F9CDF828900AA90C
:100DC00006F15000FFF73DFB06F15000FFF7FEF97A
:100DD00000940294694606F1500000F073F9602017
:100DE00003900022059207920992049406940894B5
:100DF00003A906F15000FFF79DFA0E940F9410948A
:100E000011941294139718940EA906F1500000F053
:100E100096F906F15000FFF7A4FD34700021301D53
:100E2000FFF7E1F9002106F15000FFF7DCF96A4F06
:100E30006FF0630508E0002200F04EF800224FF446
:100E400080413846FFF7D2FE3178301D00F097F828
:100E5000317806F1500000F092F830780528F3D888
:100E6000DFE800F004050A13191EEDE7E3E70122AD
:100E700000F032F80122E2E700F029F800F022F851
:100E80004FF4FA7000F0AAF9DEE700F020F800F065
:100E900019F86420F6E7322000F0A0F924B106E04A
:100EA000052000F09BF914B94FF0640803E0B4F595
:100EB000FA6F08BFA84671684444A0B24863326D17
:100EC0005063C1E74FF480413846FFF794BE2021BC
:100ED0004FF09040FFF78FBE20214FF09040FFF77A
:100EE00085BE1C22002103A8FFF781BD102200212E
:100EF0000AA8FFF77CBD0C2200216846FFF777BDEA
:100F000080B596B04422002105A8FFF770FD142299
:100F1000FFF7F2FF02214FF4807205910892102131
:100F2000002209910F9205A800F06CF901210191AE
:100F30000F20009000220021029203910492684643
:100F400000F095FB4FF4007000F0C0FC17B000BD3E
:100F50001D48017804290FD8DFE801F003050709CF
:100F60000B00012206E0022107E0032202E0042137
:100F700003E00522027070470021017070470A00EB
:100F800018BF012903D0022918BF032901D101216B
:100F900000E002210068B0F1804F07D14FF090408F
:100FA000026822F4406242EA812208E0094A904243
:100FB00006D10948026822F0405242EA01720260FA
:100FC000704700004C10024010000020000011107B
:100FD000000800480040014000040048032010B50C
:100FE00000F019F8002000F0ADFC0024002814BF28
:100FF0000124FFF783FC204610BD00000901020018
:1010000002D42A4881547047294B02F00F021A4437
:1010100002F8041C7047274B19684FF6FF020002C4
:10102000114000F4E060084323490843186070470A
:1010300070B5204B1C68C4F302230124C3F10705DB
:10104000052D2EBF0F2504FA05F56D1E1E1D072E5A
:1010500034BF0023DB1E2940994004FA03F3BDE8A6
:1010600070405B1E1A401143C8E70000010007D41E
:10107000012200F01F01114B8A40400943F8202053
:10108000704710B5401EB0F1807F01D3012010BD24
:101090000B4C60600F214FF0FF30FFF7AFFF0021D6
:1010A000A16007202060002010BD000000E400E0E7
:1010B00018ED00E00CED00E00000FA0500E100E0B2
:1010C00010E000E0F0B500F13C042278012A01D1E3
:1010D0000220F0BD01222270022363700668DFF84F
:1010E000ECE07768DFF8E8C0B568764518BF66457C
:1010F00003D14B6827F470071F430A6827F0700775
:10110000174377600268724518BFB2F1804F0CD068
:101110002D4882421CBF2F4B9A4206D0294882425A
:101120001EBF62452C4B9A4204D1886825F0800589
:10113000054395600121617000202070F0BD30B53D
:1011400090F83C20012A01D1022030BD012280F814
:101150003C20CC688B684A6824F440741C4324F417
:10116000806414430B680A6924F400641C4324F46B
:10117000805414434B698A6A24F400541C4324F4B9
:10118000804414438B69114A24F4702444EA0344D4
:10119000036893421CBF0E4DAB420CD14A6A24F443
:1011A000700444EA0254CA69096A24F08074144342
:1011B00024F000740C435C64002280F83C20002082
:1011C00030BD0000000C004000040040002C014035
:1011D00000340140000800400040014038B504469A
:1011E00000F0D2FB14F1010F054602D0044801784B
:1011F000641800F0C9FB401BA042FAD331BD00BF08
:10120000000000202DE9FC47050065D0DFF8787666
:10121000DFF88466BC68F86800F003082878C10627
:1012200004F00C0448D524B10C2C08BFB8F1010F10
:101230002CD13868810702D5A86900284CD03968BC
:1012400008074EBF396871680909286A01F0F00182
:10125000814206D200F0DEFA00283DD100F0F5F917
:1012600007E000F0F2F924B9286A00F0D3FA002868
:1012700032D100F086FABA6800F079FADFF8100689
:10128000006800F05FFB010016D0D8E1A86928B320
:10129000396841F00101396000F076FB8146386819
:1012A000810707D400F070FBA0EB09000328F6D3F8
:1012B0000320C4E100F0C9F92878C10756D5082CED
:1012C00004D00C2C08BFB8F1030F18D13868810383
:1012D0004CD56868002849D10120B0E13868400841
:1012E0004000386000F050FB814638688107E3D544
:1012F00000F04AFBA0EB09000328F6D3D8E76868A2
:10130000B0F5803F04D1386840F48030386011E097
:10131000B0F5A02F386806D140F4802038603968D5
:1013200041F4803105E020F480303860396821F4E0
:1013300080213960686860B100F026FB814638681A
:10134000810313D400F020FBA0EB09006528F6D33D
:10135000AEE700F019FB81463868810306D500F03E
:1013600013FBA0EB09006528F6D3A1E728788107D5
:1013700013D5042C04D00C2C08BFB8F1020F22D1D5
:101380003868410502D5E8680028A5D07868296941
:1013900020F0F85040EA016078602878010743D5D2
:1013A00068690028706830D040F00100706000F07B
:1013B000EBFA80467068810736D400F0E5FA00F059
:1013C00040F9F7D374E7E86878B1396841F480717F
:1013D000396000F0D9FA804638684105D6D400F06B
:1013E000D3FA00F02EF9F7D362E7386820F4807062
:1013F000386000F0C9FA804638684105CDD500F064
:10140000C3FA00F01EF9F7D352E7400840007060BD
:1014100000F0BAFA80467068810705D500F0B4FA8A
:1014200000F00FF9F7D343E72878410767D5B86D87
:10143000C1004FF000080AD4B86D40F08050B86584
:101440004FF00108B86D00F0805000900098DFF870
:101450004C94D9F80000C10513D4D9F8000040F429
:101460008070C9F8000000F08FFA8246D9F80000B9
:10147000C10506D400F088FAA0EB0A000328F5D3D2
:1014800016E7A868012804D1306840F001003060F8
:1014900010E00528306806D140F004003060316863
:1014A00041F0010105E0400840003060316821F062
:1014B00004013160A86841F2893960B100F064FA32
:1014C00082463068810713D400F05EFAA0EB0A0070
:1014D0004845F6D3ECE600F057FA824630688107BB
:1014E00006D500F051FAA0EB0A004845F6D3DFE636
:1014F000B8F1000F03D0B86D20F08050B865A86A2D
:10150000002800F09B80022878D1F868EA6A00F091
:101510000301914201BF00F070012A6B521EB1EB32
:10152000021F1ED16A6B00F4FE41B1EB022F18D1ED
:10153000A96B07290CBF0021012100F400328A4267
:101540000FD1EA6B520800F4C001521EB1EB425FAA
:1015500007D1296C490800F0C060491EB0EB416F0B
:1015600048D00C2C4BD03868410101D43868C100F8
:101570003FF5B2AE386820F08070386000F004FAB1
:1015800004463868810105D500F0FEF9001B0328E8
:10159000F7D38DE6F868DFF80813EA6A0840296B8C
:1015A0001043491E40EA0110EA6B696B520840EA99
:1015B0000120296C521E490840EA4250491E40EA67
:1015C0004160A96B090940EA4140F860386840F081
:1015D00080703860F96841F08071F96000F0D4F9EA
:1015E00004463868810129D400F0CEF9001B032895
:1015F000F7D35DE63868810120D4E7E70C2C3FF48F
:101600006BAE386820F080703860396811F0205F68
:1016100003D1F86880088000F860F968DFF8840278
:101620000140F96000F0B0F904463868810105D541
:1016300000F0AAF9001B0328F7D339E60020BDE823
:10164000F687A0EB080003287047386840F00800D0
:1016500038603968286A21F0F001014339607968FF
:10166000E86921F47F4141EA0021796070472DE962
:10167000F0410400884658D0DFF82C62306800F052
:101680000700404509D23168C90848EAC101316004
:10169000306800F00700404547D12078DFF8E85176
:1016A000C1072AD56068032802D129688A0108E0A9
:1016B000022802D129688A0303E00028296802D1A0
:1016C0008A0702D431E04A052FD5A968890840EA83
:1016D0008100A86000F058F90746A868616800F02A
:1016E0000C00B0EB810F08D000F04EF9C01B41F2A6
:1016F00089318842F1D3032037E02078810705D56E
:10170000AA68A06822F0F0020243AA60316801F0E2
:10171000070188450BD23068C00848EAC000306035
:10172000316801F00701414501D001201DE020781A
:10173000410705D5AA68E06822F4E0620243AA6086
:101740002178080706D5A968206921F4605141EA8B
:10175000C001A96000F015F8AA6800F008F8BDE81B
:10176000F0414B48006800F0EDB8BDE8F0814F490A
:10177000C2F30312895C454A01F01F01C8401060A2
:10178000704770B5404A4A4B9068D66800250021E2
:1017900010F00C0006F00306464C03D00C2812D1C2
:1017A000012E1AD115682E0704D43A4D2E68C6F3BF
:1017B000032502E01568C5F303153F4E56F8255082
:1017C00048B9294624E0042808BF214620D008282B
:1017D0001ED119461CE00C281AD1D06800F0030075
:1017E000022803D0032808BF1D4600E02546D16823
:1017F000D068D268C0F306204543C1F30210C2F39B
:101800004161401C491CB5FBF0F04900B0FBF1F10F
:10181000084670BD7CB5294E054630680024C100DD
:1018200002D500F04DF80EE0306840F08050306096
:10183000316801F080510091009800F041F8316862
:1018400021F080513160B0F5007F04D1802D0CD99A
:10185000A12D09D304E0802D88BF032405D801D130
:10186000022402E0702D00D101240F480168C9084C
:1018700044EAC1010160006800F00700A04201D005
:10188000012076BD002076BD001002400C00002033
:1018900008000020941002409010024000700040A8
:1018A0008C809DF9FFFFEEFE00200240E019000849
:1018B00000127A000024F400F019000858100240C9
:1018C000DFF87400006800F4C060704710B5DFF8FE
:1018D0006810B0F5007F086800F4C06019D1B0F559
:1018E000007F1FD00868DFF85420DFF8544020F450
:1018F000C06040F4007000F017F800E0401E4A6934
:10190000530501D50028F9D1486941050AD50320BE
:1019100010BDB0F5806F05D0086820F4C06040F4B9
:1019200080600860002010BD0860322013684343C7
:10193000B3FBF4F0401C7047007000400C00002026
:1019400040420F0070B50E4E044630780025A0B11D
:101950004FF47A710B4AB1FBF0F11068B0FBF1F073
:10196000FFF78FFB48B9102C07D2002221464FF019
:10197000FF30FFF75DFBB46000E00125284670BD35
:10198000000000200C00002001484068704700BFA4
:10199000000000200E48016841F47001016000223F
:1019A0000C49086840F0010008608A604FF48052DA
:1019B0000B68094803400B60CA6000200B68074AA7
:1019C00023F480230B6088614FF000611160704741
:1019D00088ED00E000100240FFFFF6EA08ED00E0AD
:1019E00000000000000000000102030406070809CF
:1019F000A0860100400D0300801A060000350C008F
:101A000040420F0080841E0000093D0000127A0051
:101A10000024F40000366E010048E801006CDC028E
:101A200010B5074979441831064C7C44163404E05B
:101A30000A68081D114488470146A142F8D110BD2B
:101A40002C0000004C0000004EF68851CEF2000140
:101A5000086840F470000860BFF34F8FBFF36F8FCA
:101A60004FF00070E1EE100A7047000057EEFFFFE4
:101A70009C000000100000200000000087EFFFFF26
:101A80001000000090000000000000200000000096
:101A900000F00DF8002801D0FFF7C2FFAFF300807F
:101AA0000020AFF30080FFF7FFF800F002F80120FC
:101AB000704700F001B800000746384600F002F811
:101AC000FBE7000080B5AFF30080024A1100182048
:101AD000ABBEFBE7260002007047FEE7FEE7FEE72D
:101AE000FEE770477047704700F004B84FF40050AD
:101AF000FFF789B80248416802788A184260704747
:101B0000000000200148804701480047951900085F
:101B1000251B00080100000000000000100000006C
:101B200000093D00AFF30080FFF78EFFFFF7B0FF25
:101B3000FFF7FEBFFFF7FEBFFFF7FEBFFFF7FEBFD9
:101B4000FFF7FEBFFFF7FEBFFFF7FEBFFFF7FEBFC9
:101B5000FFF7FEBFFFF7FEBFFFF7FEBFFFF7FEBFB9
:101B6000FFF7FEBFFFF7FEBFFFF7FEBFFFF7FEBFA9
:101B7000FFF7FEBFFFF7FEBFFFF7FEBFFFF7FEBF99
:101B8000FFF7FEBFFFF7FEBFFFF7FEBFFFF7FEBF89
:101B9000FFF7FEBFFFF7FEBFFFF7FEBFFFF7FEBF79
:101BA000FFF7FEBFFFF7FEBFFFF7FEBFFFF7FEBF69
:101BB000FFF7FEBFFFF7FEBFFFF7FEBFFFF7FEBF59
:101BC000FFF7FEBFFFF7FEBFFFF7FEBFFFF7FEBF49
:101BD000FFF7FEBFFFF7FEBFFFF7FEBFFFF7FEBF39
:101BE000FFF7FEBFFFF7FEBFFFF7FEBFFFF7FEBF29
:101BF000FFF7FEBFFFF7FEBFFFF7FEBFFFF7FEBF19
:101C0000FFF7FEBFFFF7FEBFFFF7FEBFFFF7FEBF08
:101C1000FFF7FEBFFFF7FEBFFFF7FEBFFFF7FEBFF8
:101C2000FFF7FEBFFFF7FEBFFFF7FEBFFFF7FEBFE8
:101C3000FFF7FEBFFFF7FEBFFFF7FEBFFFF7FEBFD8
:101C4000FFF7FEBFFFF7FEBFFFF7FEBFFFF7FEBFC8
:101C5000FFF7FEBFFFF7FEBFFFF7FEBFFFF7FEBFB8
:0C1C6000FFF7FEBFFFF7FEBFFFF7FEBF5F
:0400000508001B25AF
:00000001FF
